:020000040000FA
:1000000052202000111E0332230002309A002000EB
:10001000911E1228230019082000A7000030A7060F
:100020000319012823001D1DEC3319082000911E1F
:10003000FD3323001D19FA331908FF39031DE1337D
:100040002000A101A00123001D192B322000911EC8
:10005000FA33230019082000A70020184A2800308E
:100060002106031909320130210603190A32023030
:10007000210603190B320E322000270826009100BA
:1000800009322000270826009800043220002708A3
:10009000250091002000A10A031CD533A00AA01C52
:1000A000D233AF3321009901270022009D1722008F
:1000B0001E1420008C018D0122008C018D01210075
:1000C00021003F308C00DF308D0023009D171D176D
:1000D0001E171E141E129E161E159F159C0113300E
:1000E0009B001D121D16250055309E002800FF3074
:1000F000960025000C3093009A0126000C309300E6
:100100009A002500910126009101260098012800FF
:100110000430970021008C110C128D110800200072
:10012000FA30AA00C730A8000130A900A80B99280E
:10013000A90B9628AA0B9228003426007F30910044
:100140008F208F208F20260091017F30260098007D
:100150008F208F208F20260098017F30250091006E
:100160008F208F208F202500910126007F30910065
:100170008F208F208F20260091017F30260098004D
:100180008F208F208F20260098017F30250091003E
:0C0190008F208F208F2025009101080097
:020000040001F9
:02000E0082C9A5
:02001000FFDC13
:00000001FF
